{"abi":[{"type":"constructor","inputs":[{"name":"_poolManager","type":"address","internalType":"contract IPoolManager"}],"stateMutability":"nonpayable"},{"type":"function","name":"afterAddLiquidity","inputs":[{"name":"","type":"address","internalType":"address"},{"name":"","type":"tuple","internalType":"struct PoolKey","components":[{"name":"currency0","type":"address","internalType":"Currency"},{"name":"currency1","type":"address","internalType":"Currency"},{"name":"fee","type":"uint24","internalType":"uint24"},{"name":"tickSpacing","type":"int24","internalType":"int24"},{"name":"hooks","type":"address","internalType":"contract IHooks"}]},{"name":"","type":"tuple","internalType":"struct IPoolManager.ModifyLiquidityParams","components":[{"name":"tickLower","type":"int24","internalType":"int24"},{"name":"tickUpper","type":"int24","internalType":"int24"},{"name":"liquidityDelta","type":"int256","internalType":"int256"},{"name":"salt","type":"bytes32","internalType":"bytes32"}]},{"name":"","type":"int256","internalType":"BalanceDelta"},{"name":"","type":"int256","internalType":"BalanceDelta"},{"name":"","type":"bytes","internalType":"bytes"}],"outputs":[{"name":"","type":"bytes4","internalType":"bytes4"},{"name":"","type":"int256","internalType":"BalanceDelta"}],"stateMutability":"pure"},{"type":"function","name":"afterDonate","inputs":[{"name":"","type":"address","internalType":"address"},{"name":"","type":"tuple","internalType":"struct PoolKey","components":[{"name":"currency0","type":"address","internalType":"Currency"},{"name":"currency1","type":"address","internalType":"Currency"},{"name":"fee","type":"uint24","internalType":"uint24"},{"name":"tickSpacing","type":"int24","internalType":"int24"},{"name":"hooks","type":"address","internalType":"contract IHooks"}]},{"name":"","type":"uint256","internalType":"uint256"},{"name":"","type":"uint256","internalType":"uint256"},{"name":"","type":"bytes","internalType":"bytes"}],"outputs":[{"name":"","type":"bytes4","internalType":"bytes4"}],"stateMutability":"pure"},{"type":"function","name":"afterInitialize","inputs":[{"name":"","type":"address","internalType":"address"},{"name":"","type":"tuple","internalType":"struct PoolKey","components":[{"name":"currency0","type":"address","internalType":"Currency"},{"name":"currency1","type":"address","internalType":"Currency"},{"name":"fee","type":"uint24","internalType":"uint24"},{"name":"tickSpacing","type":"int24","internalType":"int24"},{"name":"hooks","type":"address","internalType":"contract IHooks"}]},{"name":"","type":"uint160","internalType":"uint160"},{"name":"","type":"int24","internalType":"int24"}],"outputs":[{"name":"","type":"bytes4","internalType":"bytes4"}],"stateMutability":"pure"},{"type":"function","name":"afterRemoveLiquidity","inputs":[{"name":"","type":"address","internalType":"address"},{"name":"","type":"tuple","internalType":"struct PoolKey","components":[{"name":"currency0","type":"address","internalType":"Currency"},{"name":"currency1","type":"address","internalType":"Currency"},{"name":"fee","type":"uint24","internalType":"uint24"},{"name":"tickSpacing","type":"int24","internalType":"int24"},{"name":"hooks","type":"address","internalType":"contract IHooks"}]},{"name":"","type":"tuple","internalType":"struct IPoolManager.ModifyLiquidityParams","components":[{"name":"tickLower","type":"int24","internalType":"int24"},{"name":"tickUpper","type":"int24","internalType":"int24"},{"name":"liquidityDelta","type":"int256","internalType":"int256"},{"name":"salt","type":"bytes32","internalType":"bytes32"}]},{"name":"","type":"int256","internalType":"BalanceDelta"},{"name":"","type":"int256","internalType":"BalanceDelta"},{"name":"","type":"bytes","internalType":"bytes"}],"outputs":[{"name":"","type":"bytes4","internalType":"bytes4"},{"name":"","type":"int256","internalType":"BalanceDelta"}],"stateMutability":"pure"},{"type":"function","name":"afterSwap","inputs":[{"name":"sender","type":"address","internalType":"address"},{"name":"key","type":"tuple","internalType":"struct PoolKey","components":[{"name":"currency0","type":"address","internalType":"Currency"},{"name":"currency1","type":"address","internalType":"Currency"},{"name":"fee","type":"uint24","internalType":"uint24"},{"name":"tickSpacing","type":"int24","internalType":"int24"},{"name":"hooks","type":"address","internalType":"contract IHooks"}]},{"name":"params","type":"tuple","internalType":"struct IPoolManager.SwapParams","components":[{"name":"zeroForOne","type":"bool","internalType":"bool"},{"name":"amountSpecified","type":"int256","internalType":"int256"},{"name":"sqrtPriceLimitX96","type":"uint160","internalType":"uint160"}]},{"name":"delta","type":"int256","internalType":"BalanceDelta"},{"name":"hookData","type":"bytes","internalType":"bytes"}],"outputs":[{"name":"","type":"bytes4","internalType":"bytes4"},{"name":"","type":"int128","internalType":"int128"}],"stateMutability":"nonpayable"},{"type":"function","name":"beforeAddLiquidity","inputs":[{"name":"","type":"address","internalType":"address"},{"name":"","type":"tuple","internalType":"struct PoolKey","components":[{"name":"currency0","type":"address","internalType":"Currency"},{"name":"currency1","type":"address","internalType":"Currency"},{"name":"fee","type":"uint24","internalType":"uint24"},{"name":"tickSpacing","type":"int24","internalType":"int24"},{"name":"hooks","type":"address","internalType":"contract IHooks"}]},{"name":"","type":"tuple","internalType":"struct IPoolManager.ModifyLiquidityParams","components":[{"name":"tickLower","type":"int24","internalType":"int24"},{"name":"tickUpper","type":"int24","internalType":"int24"},{"name":"liquidityDelta","type":"int256","internalType":"int256"},{"name":"salt","type":"bytes32","internalType":"bytes32"}]},{"name":"","type":"bytes","internalType":"bytes"}],"outputs":[{"name":"","type":"bytes4","internalType":"bytes4"}],"stateMutability":"pure"},{"type":"function","name":"beforeDonate","inputs":[{"name":"","type":"address","internalType":"address"},{"name":"","type":"tuple","internalType":"struct PoolKey","components":[{"name":"currency0","type":"address","internalType":"Currency"},{"name":"currency1","type":"address","internalType":"Currency"},{"name":"fee","type":"uint24","internalType":"uint24"},{"name":"tickSpacing","type":"int24","internalType":"int24"},{"name":"hooks","type":"address","internalType":"contract IHooks"}]},{"name":"","type":"uint256","internalType":"uint256"},{"name":"","type":"uint256","internalType":"uint256"},{"name":"","type":"bytes","internalType":"bytes"}],"outputs":[{"name":"","type":"bytes4","internalType":"bytes4"}],"stateMutability":"pure"},{"type":"function","name":"beforeInitialize","inputs":[{"name":"","type":"address","internalType":"address"},{"name":"","type":"tuple","internalType":"struct PoolKey","components":[{"name":"currency0","type":"address","internalType":"Currency"},{"name":"currency1","type":"address","internalType":"Currency"},{"name":"fee","type":"uint24","internalType":"uint24"},{"name":"tickSpacing","type":"int24","internalType":"int24"},{"name":"hooks","type":"address","internalType":"contract IHooks"}]},{"name":"","type":"uint160","internalType":"uint160"}],"outputs":[{"name":"","type":"bytes4","internalType":"bytes4"}],"stateMutability":"pure"},{"type":"function","name":"beforeRemoveLiquidity","inputs":[{"name":"","type":"address","internalType":"address"},{"name":"","type":"tuple","internalType":"struct PoolKey","components":[{"name":"currency0","type":"address","internalType":"Currency"},{"name":"currency1","type":"address","internalType":"Currency"},{"name":"fee","type":"uint24","internalType":"uint24"},{"name":"tickSpacing","type":"int24","internalType":"int24"},{"name":"hooks","type":"address","internalType":"contract IHooks"}]},{"name":"","type":"tuple","internalType":"struct IPoolManager.ModifyLiquidityParams","components":[{"name":"tickLower","type":"int24","internalType":"int24"},{"name":"tickUpper","type":"int24","internalType":"int24"},{"name":"liquidityDelta","type":"int256","internalType":"int256"},{"name":"salt","type":"bytes32","internalType":"bytes32"}]},{"name":"","type":"bytes","internalType":"bytes"}],"outputs":[{"name":"","type":"bytes4","internalType":"bytes4"}],"stateMutability":"pure"},{"type":"function","name":"beforeSwap","inputs":[{"name":"","type":"address","internalType":"address"},{"name":"","type":"tuple","internalType":"struct PoolKey","components":[{"name":"currency0","type":"address","internalType":"Currency"},{"name":"currency1","type":"address","internalType":"Currency"},{"name":"fee","type":"uint24","internalType":"uint24"},{"name":"tickSpacing","type":"int24","internalType":"int24"},{"name":"hooks","type":"address","internalType":"contract IHooks"}]},{"name":"","type":"tuple","internalType":"struct IPoolManager.SwapParams","components":[{"name":"zeroForOne","type":"bool","internalType":"bool"},{"name":"amountSpecified","type":"int256","internalType":"int256"},{"name":"sqrtPriceLimitX96","type":"uint160","internalType":"uint160"}]},{"name":"","type":"bytes","internalType":"bytes"}],"outputs":[{"name":"","type":"bytes4","internalType":"bytes4"},{"name":"","type":"int256","internalType":"BeforeSwapDelta"},{"name":"","type":"uint24","internalType":"uint24"}],"stateMutability":"pure"},{"type":"function","name":"poolManager","inputs":[],"outputs":[{"name":"","type":"address","internalType":"contract IPoolManager"}],"stateMutability":"view"}],"bytecode":{"object":"0x60a060405234801561000f575f5ffd5b50604051610c52380380610c52833981810160405281019061003191906100da565b8073ffffffffffffffffffffffffffffffffffffffff1660808173ffffffffffffffffffffffffffffffffffffffff168152505050610105565b5f5ffd5b5f73ffffffffffffffffffffffffffffffffffffffff82169050919050565b5f6100988261006f565b9050919050565b5f6100a98261008e565b9050919050565b6100b98161009f565b81146100c3575f5ffd5b50565b5f815190506100d4816100b0565b92915050565b5f602082840312156100ef576100ee61006b565b5b5f6100fc848285016100c6565b91505092915050565b608051610b3561011d5f395f61036e0152610b355ff3fe608060405234801561000f575f5ffd5b50600436106100a7575f3560e01c80639f063efc1161006f5780639f063efc1461019e578063b47b2fb1146101cf578063b6a8b0fa14610200578063dc4c90d314610230578063dc98354e1461024e578063e1b4af691461027e576100a7565b806321d0ee70146100ab578063259982e5146100db578063575e24b41461010b5780636c2bbe7e1461013d5780636fe7e6eb1461016e575b5f5ffd5b6100c560048036038101906100c091906104ba565b6102ae565b6040516100d2919061057a565b60405180910390f35b6100f560048036038101906100f091906104ba565b6102c2565b604051610102919061057a565b60405180910390f35b610125600480360381019061012091906105b1565b6102d6565b60405161013493929190610696565b60405180910390f35b610157600480360381019061015291906106f5565b6102f4565b6040516101659291906107b2565b60405180910390f35b61018860048036038101906101839190610839565b61030f565b604051610195919061057a565b60405180910390f35b6101b860048036038101906101b391906106f5565b610322565b6040516101c69291906107b2565b60405180910390f35b6101e960048036038101906101e4919061089e565b61033d565b6040516101f7929190610952565b60405180910390f35b61021a600480360381019061021591906109ac565b610357565b604051610227919061057a565b60405180910390f35b61023861036c565b6040516102459190610a96565b60405180910390f35b61026860048036038101906102639190610aaf565b610390565b604051610275919061057a565b60405180910390f35b610298600480360381019061029391906109ac565b6103a2565b6040516102a5919061057a565b60405180910390f35b5f6321d0ee7060e01b905095945050505050565b5f63259982e560e01b905095945050505050565b5f5f5f63575e24b460e01b5f5f925092509250955095509592505050565b5f5f636c2bbe7e60e01b5f9150915097509795505050505050565b5f636fe7e6eb60e01b9050949350505050565b5f5f639f063efc60e01b5f9150915097509795505050505050565b5f5f63b47b2fb160e01b5f91509150965096945050505050565b5f63b6a8b0fa60e01b90509695505050505050565b7f000000000000000000000000000000000000000000000000000000000000000081565b5f63dc98354e60e01b90509392505050565b5f63e1b4af6960e01b90509695505050505050565b5f5ffd5b5f5ffd5b5f73ffffffffffffffffffffffffffffffffffffffff82169050919050565b5f6103e8826103bf565b9050919050565b6103f8816103de565b8114610402575f5ffd5b50565b5f81359050610413816103ef565b92915050565b5f5ffd5b5f60a0828403121561043257610431610419565b5b81905092915050565b5f608082840312156104505761044f610419565b5b81905092915050565b5f5ffd5b5f5ffd5b5f5ffd5b5f5f83601f84011261047a57610479610459565b5b8235905067ffffffffffffffff8111156104975761049661045d565b5b6020830191508360018202830111156104b3576104b2610461565b5b9250929050565b5f5f5f5f5f61016086880312156104d4576104d36103b7565b5b5f6104e188828901610405565b95505060206104f28882890161041d565b94505060c06105038882890161043b565b93505061014086013567ffffffffffffffff811115610525576105246103bb565b5b61053188828901610465565b92509250509295509295909350565b5f7fffffffff0000000000000000000000000000000000000000000000000000000082169050919050565b61057481610540565b82525050565b5f60208201905061058d5f83018461056b565b92915050565b5f606082840312156105a8576105a7610419565b5b81905092915050565b5f5f5f5f5f61014086880312156105cb576105ca6103b7565b5b5f6105d888828901610405565b95505060206105e98882890161041d565b94505060c06105fa88828901610593565b93505061012086013567ffffffffffffffff81111561061c5761061b6103bb565b5b61062888828901610465565b92509250509295509295909350565b5f819050919050565b5f819050919050565b5f61066361065e61065984610637565b610640565b610637565b9050919050565b61067381610649565b82525050565b5f62ffffff82169050919050565b61069081610679565b82525050565b5f6060820190506106a95f83018661056b565b6106b6602083018561066a565b6106c36040830184610687565b949350505050565b6106d481610637565b81146106de575f5ffd5b50565b5f813590506106ef816106cb565b92915050565b5f5f5f5f5f5f5f6101a0888a031215610711576107106103b7565b5b5f61071e8a828b01610405565b975050602061072f8a828b0161041d565b96505060c06107408a828b0161043b565b9550506101406107528a828b016106e1565b9450506101606107648a828b016106e1565b93505061018088013567ffffffffffffffff811115610786576107856103bb565b5b6107928a828b01610465565b925092505092959891949750929550565b6107ac81610649565b82525050565b5f6040820190506107c55f83018561056b565b6107d260208301846107a3565b9392505050565b6107e2816103bf565b81146107ec575f5ffd5b50565b5f813590506107fd816107d9565b92915050565b5f8160020b9050919050565b61081881610803565b8114610822575f5ffd5b50565b5f813590506108338161080f565b92915050565b5f5f5f5f6101008587031215610852576108516103b7565b5b5f61085f87828801610405565b94505060206108708782880161041d565b93505060c0610881878288016107ef565b92505060e061089287828801610825565b91505092959194509250565b5f5f5f5f5f5f61016087890312156108b9576108b86103b7565b5b5f6108c689828a01610405565b96505060206108d789828a0161041d565b95505060c06108e889828a01610593565b9450506101206108fa89828a016106e1565b93505061014087013567ffffffffffffffff81111561091c5761091b6103bb565b5b61092889828a01610465565b92509250509295509295509295565b5f81600f0b9050919050565b61094c81610937565b82525050565b5f6040820190506109655f83018561056b565b6109726020830184610943565b9392505050565b5f819050919050565b61098b81610979565b8114610995575f5ffd5b50565b5f813590506109a681610982565b92915050565b5f5f5f5f5f5f61012087890312156109c7576109c66103b7565b5b5f6109d489828a01610405565b96505060206109e589828a0161041d565b95505060c06109f689828a01610998565b94505060e0610a0789828a01610998565b93505061010087013567ffffffffffffffff811115610a2957610a286103bb565b5b610a3589828a01610465565b92509250509295509295509295565b5f610a5e610a59610a54846103bf565b610640565b6103bf565b9050919050565b5f610a6f82610a44565b9050919050565b5f610a8082610a65565b9050919050565b610a9081610a76565b82525050565b5f602082019050610aa95f830184610a87565b92915050565b5f5f5f60e08486031215610ac657610ac56103b7565b5b5f610ad386828701610405565b9350506020610ae48682870161041d565b92505060c0610af5868287016107ef565b915050925092509256fea26469706673582212206075dccb9c2777a954207727b00b9b428ebeefad977cbc1b130c31053eeecc3464736f6c63430008210033","linkReferences":{}},"methodIdentifiers":{"afterAddLiquidity(address,(address,address,uint24,int24,address),(int24,int24,int256,bytes32),int256,int256,bytes)":"9f063efc","afterDonate(address,(address,address,uint24,int24,address),uint256,uint256,bytes)":"e1b4af69","afterInitialize(address,(address,address,uint24,int24,address),uint160,int24)":"6fe7e6eb","afterRemoveLiquidity(address,(address,address,uint24,int24,address),(int24,int24,int256,bytes32),int256,int256,bytes)":"6c2bbe7e","afterSwap(address,(address,address,uint24,int24,address),(bool,int256,uint160),int256,bytes)":"b47b2fb1","beforeAddLiquidity(address,(address,address,uint24,int24,address),(int24,int24,int256,bytes32),bytes)":"259982e5","beforeDonate(address,(address,address,uint24,int24,address),uint256,uint256,bytes)":"b6a8b0fa","beforeInitialize(address,(address,address,uint24,int24,address),uint160)":"dc98354e","beforeRemoveLiquidity(address,(address,address,uint24,int24,address),(int24,int24,int256,bytes32),bytes)":"21d0ee70","beforeSwap(address,(address,address,uint24,int24,address),(bool,int256,uint160),bytes)":"575e24b4","poolManager()":"dc4c90d3"},"id":39}