{"abi":[{"type":"constructor","inputs":[{"name":"_poolManager","type":"address","internalType":"contract IPoolManager"}],"stateMutability":"nonpayable"},{"type":"function","name":"ENS_REGISTRY","inputs":[],"outputs":[{"name":"","type":"address","internalType":"contract IENS"}],"stateMutability":"view"},{"type":"function","name":"POOL_MANAGER","inputs":[],"outputs":[{"name":"","type":"address","internalType":"contract IPoolManager"}],"stateMutability":"view"},{"type":"function","name":"REVERSE_REGISTRAR","inputs":[],"outputs":[{"name":"","type":"address","internalType":"contract IReverseRegistrar"}],"stateMutability":"view"},{"type":"function","name":"afterAddLiquidity","inputs":[{"name":"","type":"address","internalType":"address"},{"name":"","type":"tuple","internalType":"struct PoolKey","components":[{"name":"currency0","type":"address","internalType":"Currency"},{"name":"currency1","type":"address","internalType":"Currency"},{"name":"fee","type":"uint24","internalType":"uint24"},{"name":"tickSpacing","type":"int24","internalType":"int24"},{"name":"hooks","type":"address","internalType":"contract IHooks"}]},{"name":"","type":"tuple","internalType":"struct IPoolManager.ModifyLiquidityParams","components":[{"name":"tickLower","type":"int24","internalType":"int24"},{"name":"tickUpper","type":"int24","internalType":"int24"},{"name":"liquidityDelta","type":"int256","internalType":"int256"},{"name":"salt","type":"bytes32","internalType":"bytes32"}]},{"name":"","type":"int256","internalType":"BalanceDelta"},{"name":"","type":"int256","internalType":"BalanceDelta"},{"name":"","type":"bytes","internalType":"bytes"}],"outputs":[{"name":"","type":"bytes4","internalType":"bytes4"},{"name":"","type":"int256","internalType":"BalanceDelta"}],"stateMutability":"pure"},{"type":"function","name":"afterDonate","inputs":[{"name":"","type":"address","internalType":"address"},{"name":"","type":"tuple","internalType":"struct PoolKey","components":[{"name":"currency0","type":"address","internalType":"Currency"},{"name":"currency1","type":"address","internalType":"Currency"},{"name":"fee","type":"uint24","internalType":"uint24"},{"name":"tickSpacing","type":"int24","internalType":"int24"},{"name":"hooks","type":"address","internalType":"contract IHooks"}]},{"name":"","type":"uint256","internalType":"uint256"},{"name":"","type":"uint256","internalType":"uint256"},{"name":"","type":"bytes","internalType":"bytes"}],"outputs":[{"name":"","type":"bytes4","internalType":"bytes4"}],"stateMutability":"pure"},{"type":"function","name":"afterInitialize","inputs":[{"name":"","type":"address","internalType":"address"},{"name":"","type":"tuple","internalType":"struct PoolKey","components":[{"name":"currency0","type":"address","internalType":"Currency"},{"name":"currency1","type":"address","internalType":"Currency"},{"name":"fee","type":"uint24","internalType":"uint24"},{"name":"tickSpacing","type":"int24","internalType":"int24"},{"name":"hooks","type":"address","internalType":"contract IHooks"}]},{"name":"","type":"uint160","internalType":"uint160"},{"name":"","type":"int24","internalType":"int24"}],"outputs":[{"name":"","type":"bytes4","internalType":"bytes4"}],"stateMutability":"pure"},{"type":"function","name":"afterRemoveLiquidity","inputs":[{"name":"","type":"address","internalType":"address"},{"name":"","type":"tuple","internalType":"struct PoolKey","components":[{"name":"currency0","type":"address","internalType":"Currency"},{"name":"currency1","type":"address","internalType":"Currency"},{"name":"fee","type":"uint24","internalType":"uint24"},{"name":"tickSpacing","type":"int24","internalType":"int24"},{"name":"hooks","type":"address","internalType":"contract IHooks"}]},{"name":"","type":"tuple","internalType":"struct IPoolManager.ModifyLiquidityParams","components":[{"name":"tickLower","type":"int24","internalType":"int24"},{"name":"tickUpper","type":"int24","internalType":"int24"},{"name":"liquidityDelta","type":"int256","internalType":"int256"},{"name":"salt","type":"bytes32","internalType":"bytes32"}]},{"name":"","type":"int256","internalType":"BalanceDelta"},{"name":"","type":"int256","internalType":"BalanceDelta"},{"name":"","type":"bytes","internalType":"bytes"}],"outputs":[{"name":"","type":"bytes4","internalType":"bytes4"},{"name":"","type":"int256","internalType":"BalanceDelta"}],"stateMutability":"pure"},{"type":"function","name":"afterSwap","inputs":[{"name":"sender","type":"address","internalType":"address"},{"name":"key","type":"tuple","internalType":"struct PoolKey","components":[{"name":"currency0","type":"address","internalType":"Currency"},{"name":"currency1","type":"address","internalType":"Currency"},{"name":"fee","type":"uint24","internalType":"uint24"},{"name":"tickSpacing","type":"int24","internalType":"int24"},{"name":"hooks","type":"address","internalType":"contract IHooks"}]},{"name":"params","type":"tuple","internalType":"struct IPoolManager.SwapParams","components":[{"name":"zeroForOne","type":"bool","internalType":"bool"},{"name":"amountSpecified","type":"int256","internalType":"int256"},{"name":"sqrtPriceLimitX96","type":"uint160","internalType":"uint160"}]},{"name":"delta","type":"int256","internalType":"BalanceDelta"},{"name":"hookData","type":"bytes","internalType":"bytes"}],"outputs":[{"name":"","type":"bytes4","internalType":"bytes4"},{"name":"","type":"int128","internalType":"int128"}],"stateMutability":"nonpayable"},{"type":"function","name":"beforeAddLiquidity","inputs":[{"name":"","type":"address","internalType":"address"},{"name":"","type":"tuple","internalType":"struct PoolKey","components":[{"name":"currency0","type":"address","internalType":"Currency"},{"name":"currency1","type":"address","internalType":"Currency"},{"name":"fee","type":"uint24","internalType":"uint24"},{"name":"tickSpacing","type":"int24","internalType":"int24"},{"name":"hooks","type":"address","internalType":"contract IHooks"}]},{"name":"","type":"tuple","internalType":"struct IPoolManager.ModifyLiquidityParams","components":[{"name":"tickLower","type":"int24","internalType":"int24"},{"name":"tickUpper","type":"int24","internalType":"int24"},{"name":"liquidityDelta","type":"int256","internalType":"int256"},{"name":"salt","type":"bytes32","internalType":"bytes32"}]},{"name":"","type":"bytes","internalType":"bytes"}],"outputs":[{"name":"","type":"bytes4","internalType":"bytes4"}],"stateMutability":"pure"},{"type":"function","name":"beforeDonate","inputs":[{"name":"","type":"address","internalType":"address"},{"name":"","type":"tuple","internalType":"struct PoolKey","components":[{"name":"currency0","type":"address","internalType":"Currency"},{"name":"currency1","type":"address","internalType":"Currency"},{"name":"fee","type":"uint24","internalType":"uint24"},{"name":"tickSpacing","type":"int24","internalType":"int24"},{"name":"hooks","type":"address","internalType":"contract IHooks"}]},{"name":"","type":"uint256","internalType":"uint256"},{"name":"","type":"uint256","internalType":"uint256"},{"name":"","type":"bytes","internalType":"bytes"}],"outputs":[{"name":"","type":"bytes4","internalType":"bytes4"}],"stateMutability":"pure"},{"type":"function","name":"beforeInitialize","inputs":[{"name":"","type":"address","internalType":"address"},{"name":"","type":"tuple","internalType":"struct PoolKey","components":[{"name":"currency0","type":"address","internalType":"Currency"},{"name":"currency1","type":"address","internalType":"Currency"},{"name":"fee","type":"uint24","internalType":"uint24"},{"name":"tickSpacing","type":"int24","internalType":"int24"},{"name":"hooks","type":"address","internalType":"contract IHooks"}]},{"name":"","type":"uint160","internalType":"uint160"}],"outputs":[{"name":"","type":"bytes4","internalType":"bytes4"}],"stateMutability":"pure"},{"type":"function","name":"beforeRemoveLiquidity","inputs":[{"name":"","type":"address","internalType":"address"},{"name":"","type":"tuple","internalType":"struct PoolKey","components":[{"name":"currency0","type":"address","internalType":"Currency"},{"name":"currency1","type":"address","internalType":"Currency"},{"name":"fee","type":"uint24","internalType":"uint24"},{"name":"tickSpacing","type":"int24","internalType":"int24"},{"name":"hooks","type":"address","internalType":"contract IHooks"}]},{"name":"","type":"tuple","internalType":"struct IPoolManager.ModifyLiquidityParams","components":[{"name":"tickLower","type":"int24","internalType":"int24"},{"name":"tickUpper","type":"int24","internalType":"int24"},{"name":"liquidityDelta","type":"int256","internalType":"int256"},{"name":"salt","type":"bytes32","internalType":"bytes32"}]},{"name":"","type":"bytes","internalType":"bytes"}],"outputs":[{"name":"","type":"bytes4","internalType":"bytes4"}],"stateMutability":"pure"},{"type":"function","name":"beforeSwap","inputs":[{"name":"","type":"address","internalType":"address"},{"name":"","type":"tuple","internalType":"struct PoolKey","components":[{"name":"currency0","type":"address","internalType":"Currency"},{"name":"currency1","type":"address","internalType":"Currency"},{"name":"fee","type":"uint24","internalType":"uint24"},{"name":"tickSpacing","type":"int24","internalType":"int24"},{"name":"hooks","type":"address","internalType":"contract IHooks"}]},{"name":"","type":"tuple","internalType":"struct IPoolManager.SwapParams","components":[{"name":"zeroForOne","type":"bool","internalType":"bool"},{"name":"amountSpecified","type":"int256","internalType":"int256"},{"name":"sqrtPriceLimitX96","type":"uint160","internalType":"uint160"}]},{"name":"","type":"bytes","internalType":"bytes"}],"outputs":[{"name":"","type":"bytes4","internalType":"bytes4"},{"name":"","type":"int256","internalType":"BeforeSwapDelta"},{"name":"","type":"uint24","internalType":"uint24"}],"stateMutability":"pure"},{"type":"function","name":"getENSName","inputs":[{"name":"user","type":"address","internalType":"address"}],"outputs":[{"name":"","type":"string","internalType":"string"}],"stateMutability":"view"},{"type":"function","name":"getUserPreferences","inputs":[{"name":"user","type":"address","internalType":"address"}],"outputs":[{"name":"prefs","type":"tuple","internalType":"struct CashbackHook.UserPreferences","components":[{"name":"mode","type":"string","internalType":"string"},{"name":"percent","type":"uint256","internalType":"uint256"},{"name":"autocompound","type":"bool","internalType":"bool"}]}],"stateMutability":"view"},{"type":"event","name":"CashbackCalculated","inputs":[{"name":"user","type":"address","indexed":true,"internalType":"address"},{"name":"ensName","type":"string","indexed":false,"internalType":"string"},{"name":"mode","type":"string","indexed":false,"internalType":"string"},{"name":"percent","type":"uint256","indexed":false,"internalType":"uint256"},{"name":"swapAmount","type":"int256","indexed":false,"internalType":"int256"}],"anonymous":false},{"type":"event","name":"PreferencesRead","inputs":[{"name":"user","type":"address","indexed":true,"internalType":"address"},{"name":"node","type":"bytes32","indexed":false,"internalType":"bytes32"},{"name":"mode","type":"string","indexed":false,"internalType":"string"},{"name":"percent","type":"string","indexed":false,"internalType":"string"},{"name":"autocompound","type":"string","indexed":false,"internalType":"string"}],"anonymous":false}],"bytecode":{"object":"0x60e060405234801561000f575f80fd5b50604051611f33380380611f3383398181016040528101906100319190610165565b8073ffffffffffffffffffffffffffffffffffffffff1660808173ffffffffffffffffffffffffffffffffffffffff16815250506e0c2e074ec69a0dfb2997ba6c7d2e1e73ffffffffffffffffffffffffffffffffffffffff1660a08173ffffffffffffffffffffffffffffffffffffffff168152505073a0a1abcdae1a2a4a2ef8e9113ff0e02dd81dc0c673ffffffffffffffffffffffffffffffffffffffff1660c08173ffffffffffffffffffffffffffffffffffffffff168152505050610190565b5f80fd5b5f73ffffffffffffffffffffffffffffffffffffffff82169050919050565b5f610123826100fa565b9050919050565b5f61013482610119565b9050919050565b6101448161012a565b811461014e575f80fd5b50565b5f8151905061015f8161013b565b92915050565b5f6020828403121561017a576101796100f6565b5b5f61018784828501610151565b91505092915050565b60805160a05160c051611d5d6101d65f395f81816103c90152818161085e015261088501525f81816104640152818161083a015261092001525f6107e80152611d5d5ff3fe608060405234801561000f575f80fd5b50600436106100f3575f3560e01c806385e9691711610095578063b47b2fb111610064578063b47b2fb1146102d5578063b6a8b0fa14610306578063dc98354e14610336578063e1b4af6914610366576100f3565b806385e9691714610238578063952899fc146102565780639cbc3427146102745780639f063efc146102a4576100f3565b8063575e24b4116100d1578063575e24b41461018757806362308e85146101b95780636c2bbe7e146101d75780636fe7e6eb14610208576100f3565b806321d0ee70146100f7578063259982e51461012757806335b1233314610157575b5f80fd5b610111600480360381019061010c9190610f55565b610396565b60405161011e9190611015565b60405180910390f35b610141600480360381019061013c9190610f55565b6103aa565b60405161014e9190611015565b60405180910390f35b610171600480360381019061016c919061102e565b6103be565b60405161017e9190611148565b60405180910390f35b6101a1600480360381019061019c9190611186565b6107c8565b6040516101b09392919061126b565b60405180910390f35b6101c16107e6565b6040516101ce91906112f2565b60405180910390f35b6101f160048036038101906101ec9190611335565b61080a565b6040516101ff9291906113f2565b60405180910390f35b610222600480360381019061021d9190611479565b610825565b60405161022f9190611015565b60405180910390f35b610240610838565b60405161024d91906114fe565b60405180910390f35b61025e61085c565b60405161026b9190611537565b60405180910390f35b61028e6004803603810190610289919061102e565b610880565b60405161029b9190611598565b60405180910390f35b6102be60048036038101906102b99190611335565b610a88565b6040516102cc9291906113f2565b60405180910390f35b6102ef60048036038101906102ea91906115b8565b610aa3565b6040516102fd92919061166c565b60405180910390f35b610320600480360381019061031b91906116bd565b610c8b565b60405161032d9190611015565b60405180910390f35b610350600480360381019061034b9190611755565b610ca0565b60405161035d9190611015565b60405180910390f35b610380600480360381019061037b91906116bd565b610cb2565b60405161038d9190611015565b60405180910390f35b5f6321d0ee7060e01b905095945050505050565b5f63259982e560e01b905095945050505050565b6103c6610e28565b5f7f000000000000000000000000000000000000000000000000000000000000000073ffffffffffffffffffffffffffffffffffffffff1663bffbe61c846040518263ffffffff1660e01b815260040161042091906117b4565b602060405180830381865afa15801561043b573d5f803e3d5ffd5b505050506040513d601f19601f8201168201806040525081019061045f9190611800565b90505f7f000000000000000000000000000000000000000000000000000000000000000073ffffffffffffffffffffffffffffffffffffffff16630178b8bf836040518263ffffffff1660e01b81526004016104bb919061183a565b602060405180830381865afa1580156104d6573d5f803e3d5ffd5b505050506040513d601f19601f820116820180604052508101906104fa9190611867565b90505f73ffffffffffffffffffffffffffffffffffffffff168173ffffffffffffffffffffffffffffffffffffffff160361058b5760405180606001604052806040518060400160405280600481526020017f686f6c64000000000000000000000000000000000000000000000000000000008152508152602001600181526020015f1515815250925050506107c3565b5f8190505f8173ffffffffffffffffffffffffffffffffffffffff166359d1d43c856040518263ffffffff1660e01b81526004016105c991906118dc565b5f60405180830381865afa1580156105e3573d5f803e3d5ffd5b505050506040513d5f823e3d601f19601f8201168201806040525081019061060b9190611a22565b90505f8273ffffffffffffffffffffffffffffffffffffffff166359d1d43c866040518263ffffffff1660e01b81526004016106479190611ab3565b5f60405180830381865afa158015610661573d5f803e3d5ffd5b505050506040513d5f823e3d601f19601f820116820180604052508101906106899190611a22565b90505f8373ffffffffffffffffffffffffffffffffffffffff166359d1d43c876040518263ffffffff1660e01b81526004016106c59190611b29565b5f60405180830381865afa1580156106df573d5f803e3d5ffd5b505050506040513d5f823e3d601f19601f820116820180604052508101906107079190611a22565b90505f83511161074c576040518060400160405280600481526020017f686f6c640000000000000000000000000000000000000000000000000000000081525061074e565b825b875f018190525061075e82610cc7565b8760200181815250506040518060400160405280600481526020017f7472756500000000000000000000000000000000000000000000000000000000815250805190602001208180519060200120148760400190151590811515815250505050505050505b919050565b5f805f63575e24b460e01b5f80925092509250955095509592505050565b7f000000000000000000000000000000000000000000000000000000000000000081565b5f80636c2bbe7e60e01b5f9150915097509795505050505050565b5f636fe7e6eb60e01b9050949350505050565b7f000000000000000000000000000000000000000000000000000000000000000081565b7f000000000000000000000000000000000000000000000000000000000000000081565b60605f7f000000000000000000000000000000000000000000000000000000000000000073ffffffffffffffffffffffffffffffffffffffff1663bffbe61c846040518263ffffffff1660e01b81526004016108dc91906117b4565b602060405180830381865afa1580156108f7573d5f803e3d5ffd5b505050506040513d601f19601f8201168201806040525081019061091b9190611800565b90505f7f000000000000000000000000000000000000000000000000000000000000000073ffffffffffffffffffffffffffffffffffffffff16630178b8bf836040518263ffffffff1660e01b8152600401610977919061183a565b602060405180830381865afa158015610992573d5f803e3d5ffd5b505050506040513d601f19601f820116820180604052508101906109b69190611867565b90505f73ffffffffffffffffffffffffffffffffffffffff168173ffffffffffffffffffffffffffffffffffffffff1603610a035760405180602001604052805f81525092505050610a83565b8073ffffffffffffffffffffffffffffffffffffffff1663691f3431836040518263ffffffff1660e01b8152600401610a3c919061183a565b5f60405180830381865afa158015610a56573d5f803e3d5ffd5b505050506040513d5f823e3d601f19601f82011682018060405250810190610a7e9190611a22565b925050505b919050565b5f80639f063efc60e01b5f9150915097509795505050505050565b5f805f610aaf896103be565b90505f875f016020810190610ac49190611b7f565b610ad957610ad187610e10565b600f0b610ae6565b610ae287610e1c565b600f0b5b90505f60405180602001604052805f81525090503073ffffffffffffffffffffffffffffffffffffffff16639cbc34278c6040518263ffffffff1660e01b8152600401610b3391906117b4565b5f60405180830381865afa925050508015610b7057506040513d5f823e3d601f19601f82011682018060405250810190610b6d9190611a22565b60015b15610b7a57809150505b8a73ffffffffffffffffffffffffffffffffffffffff167f84a1c0d52aa488773fcd3af98477556399e989a0cffdfa76e2a53118d8b0597582855f0151866020015186604051610bcd9493929190611bc8565b60405180910390a25f6040518060400160405280600581526020017f7969656c6400000000000000000000000000000000000000000000000000000081525080519060200120845f0151805190602001200315610c6f576040518060400160405280600a81526020017f737461626c65636f696e0000000000000000000000000000000000000000000081525080519060200120845f01518051906020012050505b63b47b2fb160e01b819550955050505050965096945050505050565b5f63b6a8b0fa60e01b90509695505050505050565b5f63dc98354e60e01b90509392505050565b5f63e1b4af6960e01b90509695505050505050565b5f808290505f815103610cde576001915050610e0b565b5f805b8251811015610ddc57603060f81b838281518110610d0257610d01611c19565b5b602001015160f81c60f81b7effffffffffffffffffffffffffffffffffffffffffffffffffffffffffffff191610158015610d805750603960f81b838281518110610d5057610d4f611c19565b5b602001015160f81c60f81b7effffffffffffffffffffffffffffffffffffffffffffffffffffffffffffff191611155b15610dcf576030838281518110610d9a57610d99611c19565b5b602001015160f81c60f81b60f81c610db29190611c7f565b60ff16600a83610dc29190611cb3565b610dcc9190611cf4565b91505b8080600101915050610ce1565b506001811015610df157600192505050610e0b565b600a811115610e0557600a92505050610e0b565b80925050505b919050565b5f81600f0b9050919050565b5f8160801d9050919050565b6040518060600160405280606081526020015f81526020015f151581525090565b5f604051905090565b5f80fd5b5f80fd5b5f73ffffffffffffffffffffffffffffffffffffffff82169050919050565b5f610e8382610e5a565b9050919050565b610e9381610e79565b8114610e9d575f80fd5b50565b5f81359050610eae81610e8a565b92915050565b5f80fd5b5f60a08284031215610ecd57610ecc610eb4565b5b81905092915050565b5f60808284031215610eeb57610eea610eb4565b5b81905092915050565b5f80fd5b5f80fd5b5f80fd5b5f8083601f840112610f1557610f14610ef4565b5b8235905067ffffffffffffffff811115610f3257610f31610ef8565b5b602083019150836001820283011115610f4e57610f4d610efc565b5b9250929050565b5f805f805f6101608688031215610f6f57610f6e610e52565b5b5f610f7c88828901610ea0565b9550506020610f8d88828901610eb8565b94505060c0610f9e88828901610ed6565b93505061014086013567ffffffffffffffff811115610fc057610fbf610e56565b5b610fcc88828901610f00565b92509250509295509295909350565b5f7fffffffff0000000000000000000000000000000000000000000000000000000082169050919050565b61100f81610fdb565b82525050565b5f6020820190506110285f830184611006565b92915050565b5f6020828403121561104357611042610e52565b5b5f61105084828501610ea0565b91505092915050565b5f81519050919050565b5f82825260208201905092915050565b8281835e5f83830152505050565b5f601f19601f8301169050919050565b5f61109b82611059565b6110a58185611063565b93506110b5818560208601611073565b6110be81611081565b840191505092915050565b5f819050919050565b6110db816110c9565b82525050565b5f8115159050919050565b6110f5816110e1565b82525050565b5f606083015f8301518482035f8601526111158282611091565b915050602083015161112a60208601826110d2565b50604083015161113d60408601826110ec565b508091505092915050565b5f6020820190508181035f83015261116081846110fb565b905092915050565b5f6060828403121561117d5761117c610eb4565b5b81905092915050565b5f805f805f61014086880312156111a05761119f610e52565b5b5f6111ad88828901610ea0565b95505060206111be88828901610eb8565b94505060c06111cf88828901611168565b93505061012086013567ffffffffffffffff8111156111f1576111f0610e56565b5b6111fd88828901610f00565b92509250509295509295909350565b5f819050919050565b5f819050919050565b5f61123861123361122e8461120c565b611215565b61120c565b9050919050565b6112488161121e565b82525050565b5f62ffffff82169050919050565b6112658161124e565b82525050565b5f60608201905061127e5f830186611006565b61128b602083018561123f565b611298604083018461125c565b949350505050565b5f6112ba6112b56112b084610e5a565b611215565b610e5a565b9050919050565b5f6112cb826112a0565b9050919050565b5f6112dc826112c1565b9050919050565b6112ec816112d2565b82525050565b5f6020820190506113055f8301846112e3565b92915050565b6113148161120c565b811461131e575f80fd5b50565b5f8135905061132f8161130b565b92915050565b5f805f805f805f6101a0888a03121561135157611350610e52565b5b5f61135e8a828b01610ea0565b975050602061136f8a828b01610eb8565b96505060c06113808a828b01610ed6565b9550506101406113928a828b01611321565b9450506101606113a48a828b01611321565b93505061018088013567ffffffffffffffff8111156113c6576113c5610e56565b5b6113d28a828b01610f00565b925092505092959891949750929550565b6113ec8161121e565b82525050565b5f6040820190506114055f830185611006565b61141260208301846113e3565b9392505050565b61142281610e5a565b811461142c575f80fd5b50565b5f8135905061143d81611419565b92915050565b5f8160020b9050919050565b61145881611443565b8114611462575f80fd5b50565b5f813590506114738161144f565b92915050565b5f805f80610100858703121561149257611491610e52565b5b5f61149f87828801610ea0565b94505060206114b087828801610eb8565b93505060c06114c18782880161142f565b92505060e06114d287828801611465565b91505092959194509250565b5f6114e8826112c1565b9050919050565b6114f8816114de565b82525050565b5f6020820190506115115f8301846114ef565b92915050565b5f611521826112c1565b9050919050565b61153181611517565b82525050565b5f60208201905061154a5f830184611528565b92915050565b5f82825260208201905092915050565b5f61156a82611059565b6115748185611550565b9350611584818560208601611073565b61158d81611081565b840191505092915050565b5f6020820190508181035f8301526115b08184611560565b905092915050565b5f805f805f8061016087890312156115d3576115d2610e52565b5b5f6115e089828a01610ea0565b96505060206115f189828a01610eb8565b95505060c061160289828a01611168565b94505061012061161489828a01611321565b93505061014087013567ffffffffffffffff81111561163657611635610e56565b5b61164289828a01610f00565b92509250509295509295509295565b5f81600f0b9050919050565b61166681611651565b82525050565b5f60408201905061167f5f830185611006565b61168c602083018461165d565b9392505050565b61169c816110c9565b81146116a6575f80fd5b50565b5f813590506116b781611693565b92915050565b5f805f805f8061012087890312156116d8576116d7610e52565b5b5f6116e589828a01610ea0565b96505060206116f689828a01610eb8565b95505060c061170789828a016116a9565b94505060e061171889828a016116a9565b93505061010087013567ffffffffffffffff81111561173a57611739610e56565b5b61174689828a01610f00565b92509250509295509295509295565b5f805f60e0848603121561176c5761176b610e52565b5b5f61177986828701610ea0565b935050602061178a86828701610eb8565b92505060c061179b8682870161142f565b9150509250925092565b6117ae81610e79565b82525050565b5f6020820190506117c75f8301846117a5565b92915050565b5f819050919050565b6117df816117cd565b81146117e9575f80fd5b50565b5f815190506117fa816117d6565b92915050565b5f6020828403121561181557611814610e52565b5b5f611822848285016117ec565b91505092915050565b611834816117cd565b82525050565b5f60208201905061184d5f83018461182b565b92915050565b5f8151905061186181610e8a565b92915050565b5f6020828403121561187c5761187b610e52565b5b5f61188984828501611853565b91505092915050565b7f636173686261636b2e6d6f6465000000000000000000000000000000000000005f82015250565b5f6118c6600d83611550565b91506118d182611892565b602082019050919050565b5f6040820190506118ef5f83018461182b565b8181036020830152611900816118ba565b905092915050565b5f80fd5b7f4e487b71000000000000000000000000000000000000000000000000000000005f52604160045260245ffd5b61194282611081565b810181811067ffffffffffffffff821117156119615761196061190c565b5b80604052505050565b5f611973610e49565b905061197f8282611939565b919050565b5f67ffffffffffffffff82111561199e5761199d61190c565b5b6119a782611081565b9050602081019050919050565b5f6119c66119c184611984565b61196a565b9050828152602081018484840111156119e2576119e1611908565b5b6119ed848285611073565b509392505050565b5f82601f830112611a0957611a08610ef4565b5b8151611a198482602086016119b4565b91505092915050565b5f60208284031215611a3757611a36610e52565b5b5f82015167ffffffffffffffff811115611a5457611a53610e56565b5b611a60848285016119f5565b91505092915050565b7f636173686261636b2e70657263656e74000000000000000000000000000000005f82015250565b5f611a9d601083611550565b9150611aa882611a69565b602082019050919050565b5f604082019050611ac65f83018461182b565b8181036020830152611ad781611a91565b905092915050565b7f636173686261636b2e6175746f636f6d706f756e6400000000000000000000005f82015250565b5f611b13601583611550565b9150611b1e82611adf565b602082019050919050565b5f604082019050611b3c5f83018461182b565b8181036020830152611b4d81611b07565b905092915050565b611b5e816110e1565b8114611b68575f80fd5b50565b5f81359050611b7981611b55565b92915050565b5f60208284031215611b9457611b93610e52565b5b5f611ba184828501611b6b565b91505092915050565b611bb3816110c9565b82525050565b611bc28161120c565b82525050565b5f6080820190508181035f830152611be08187611560565b90508181036020830152611bf48186611560565b9050611c036040830185611baa565b611c106060830184611bb9565b95945050505050565b7f4e487b71000000000000000000000000000000000000000000000000000000005f52603260045260245ffd5b5f60ff82169050919050565b7f4e487b71000000000000000000000000000000000000000000000000000000005f52601160045260245ffd5b5f611c8982611c46565b9150611c9483611c46565b9250828203905060ff811115611cad57611cac611c52565b5b92915050565b5f611cbd826110c9565b9150611cc8836110c9565b9250828202611cd6816110c9565b91508282048414831517611ced57611cec611c52565b5b5092915050565b5f611cfe826110c9565b9150611d09836110c9565b9250828201905080821115611d2157611d20611c52565b5b9291505056fea2646970667358221220c13aa6b9806c0c91bc1c914f85172d2cf25dc7ac2d66b9cc9c55fe469dd7d45a64736f6c634300081a0033","linkReferences":{}},"methodIdentifiers":{"ENS_REGISTRY()":"85e96917","POOL_MANAGER()":"62308e85","REVERSE_REGISTRAR()":"952899fc","afterAddLiquidity(address,(address,address,uint24,int24,address),(int24,int24,int256,bytes32),int256,int256,bytes)":"9f063efc","afterDonate(address,(address,address,uint24,int24,address),uint256,uint256,bytes)":"e1b4af69","afterInitialize(address,(address,address,uint24,int24,address),uint160,int24)":"6fe7e6eb","afterRemoveLiquidity(address,(address,address,uint24,int24,address),(int24,int24,int256,bytes32),int256,int256,bytes)":"6c2bbe7e","afterSwap(address,(address,address,uint24,int24,address),(bool,int256,uint160),int256,bytes)":"b47b2fb1","beforeAddLiquidity(address,(address,address,uint24,int24,address),(int24,int24,int256,bytes32),bytes)":"259982e5","beforeDonate(address,(address,address,uint24,int24,address),uint256,uint256,bytes)":"b6a8b0fa","beforeInitialize(address,(address,address,uint24,int24,address),uint160)":"dc98354e","beforeRemoveLiquidity(address,(address,address,uint24,int24,address),(int24,int24,int256,bytes32),bytes)":"21d0ee70","beforeSwap(address,(address,address,uint24,int24,address),(bool,int256,uint160),bytes)":"575e24b4","getENSName(address)":"9cbc3427","getUserPreferences(address)":"35b12333"},"id":36}