{"abi":[{"type":"constructor","inputs":[],"stateMutability":"nonpayable"},{"type":"function","name":"ENS_RESOLVER","inputs":[],"outputs":[{"name":"","type":"address","internalType":"contract ITextResolver"}],"stateMutability":"view"},{"type":"function","name":"REVERSE_REGISTRAR","inputs":[],"outputs":[{"name":"","type":"address","internalType":"contract IReverseRegistrar"}],"stateMutability":"view"},{"type":"function","name":"getPreferences","inputs":[{"name":"node","type":"bytes32","internalType":"bytes32"}],"outputs":[{"name":"prefs","type":"tuple","internalType":"struct CashbackPreferences.Preferences","components":[{"name":"mode","type":"string","internalType":"string"},{"name":"percent","type":"uint256","internalType":"uint256"},{"name":"autocompound","type":"bool","internalType":"bool"}]}],"stateMutability":"view"},{"type":"function","name":"setPreferences","inputs":[{"name":"node","type":"bytes32","internalType":"bytes32"},{"name":"mode","type":"string","internalType":"string"},{"name":"percent","type":"uint256","internalType":"uint256"},{"name":"autocompound","type":"bool","internalType":"bool"}],"outputs":[],"stateMutability":"nonpayable"},{"type":"event","name":"PreferencesUpdated","inputs":[{"name":"user","type":"address","indexed":true,"internalType":"address"},{"name":"mode","type":"string","indexed":false,"internalType":"string"},{"name":"percent","type":"uint256","indexed":false,"internalType":"uint256"},{"name":"autocompound","type":"bool","indexed":false,"internalType":"bool"}],"anonymous":false}],"bytecode":{"object":"0x60c060405234801561000f575f80fd5b50738fade66b79cc9f707ab26799354482eb93a5b7dd73ffffffffffffffffffffffffffffffffffffffff1660808173ffffffffffffffffffffffffffffffffffffffff168152505073a0a1abcdae1a2a4a2ef8e9113ff0e02dd81dc0c673ffffffffffffffffffffffffffffffffffffffff1660a08173ffffffffffffffffffffffffffffffffffffffff168152505060805160a0516115836100ea5f395f61076e01525f818160e10152818161017f0152818161021d015281816104d701528181610561015281816105f1015261074a01526115835ff3fe608060405234801561000f575f80fd5b506004361061004a575f3560e01c806304025c4f1461004e5780636a7c65631461007e57806393ed44641461009a578063952899fc146100b8575b5f80fd5b61006860048036038101906100639190610a6e565b6100d6565b6040516100759190610b88565b60405180910390f35b61009860048036038101906100939190610c5d565b610389565b005b6100a2610748565b6040516100af9190610d5b565b60405180910390f35b6100c061076c565b6040516100cd9190610d94565b60405180910390f35b6100de610a09565b5f7f000000000000000000000000000000000000000000000000000000000000000073ffffffffffffffffffffffffffffffffffffffff166359d1d43c846040518263ffffffff1660e01b81526004016101389190610e16565b5f60405180830381865afa158015610152573d5f803e3d5ffd5b505050506040513d5f823e3d601f19601f8201168201806040525081019061017a9190610f5c565b90505f7f000000000000000000000000000000000000000000000000000000000000000073ffffffffffffffffffffffffffffffffffffffff166359d1d43c856040518263ffffffff1660e01b81526004016101d69190610fed565b5f60405180830381865afa1580156101f0573d5f803e3d5ffd5b505050506040513d5f823e3d601f19601f820116820180604052508101906102189190610f5c565b90505f7f000000000000000000000000000000000000000000000000000000000000000073ffffffffffffffffffffffffffffffffffffffff166359d1d43c866040518263ffffffff1660e01b81526004016102749190611063565b5f60405180830381865afa15801561028e573d5f803e3d5ffd5b505050506040513d5f823e3d601f19601f820116820180604052508101906102b69190610f5c565b90505f8351116102fb576040518060400160405280600481526020017f686f6c64000000000000000000000000000000000000000000000000000000008152506102fd565b825b845f018190525061030d82610790565b84602001818152505060018460200151101561032f5760018460200181815250505b600a8460200151111561034857600a8460200181815250505b7f6273151f959616268004b58dbb21e5c851b7b8d04498b4aabee12291d22fc034818051906020012014846040019015159081151581525050505050919050565b6001821015801561039b5750600a8211155b6103da576040517f08c379a00000000000000000000000000000000000000000000000000000000081526004016103d1906110d9565b60405180910390fd5b7f74f99285ffe5de66c03e51be6bff529b6cdddc2ce2162e490adeff3261c14049848460405161040b929190611133565b6040518091039020148061045557507fa16703bbca211539dd6002c607718de172bdb81273f10bf04a6165c098c72421848460405161044b929190611133565b6040518091039020145b8061049657507ff9d29e908bd769642c71e2f5d6de72c692cd65ef062a4d7978e4ce404f59482e848460405161048c929190611133565b6040518091039020145b6104d5576040517f08c379a00000000000000000000000000000000000000000000000000000000081526004016104cc90611195565b60405180910390fd5b7f000000000000000000000000000000000000000000000000000000000000000073ffffffffffffffffffffffffffffffffffffffff166310f13a8c8686866040518463ffffffff1660e01b8152600401610532939291906111df565b5f604051808303815f87803b158015610549575f80fd5b505af115801561055b573d5f803e3d5ffd5b505050507f000000000000000000000000000000000000000000000000000000000000000073ffffffffffffffffffffffffffffffffffffffff166310f13a8c866105a5856108b0565b6040518363ffffffff1660e01b81526004016105c292919061125a565b5f604051808303815f87803b1580156105d9575f80fd5b505af11580156105eb573d5f803e3d5ffd5b505050507f000000000000000000000000000000000000000000000000000000000000000073ffffffffffffffffffffffffffffffffffffffff166310f13a8c868361066c576040518060400160405280600581526020017f66616c73650000000000000000000000000000000000000000000000000000008152506106a3565b6040518060400160405280600481526020017f74727565000000000000000000000000000000000000000000000000000000008152505b6040518363ffffffff1660e01b81526004016106c092919061129b565b5f604051808303815f87803b1580156106d7575f80fd5b505af11580156106e9573d5f803e3d5ffd5b505050503373ffffffffffffffffffffffffffffffffffffffff167f3321270e0bbe0ba3a583e255a00b6826a1b04d1e9603a8923836c8700f1b55428585858560405161073994939291906112fa565b60405180910390a25050505050565b7f000000000000000000000000000000000000000000000000000000000000000081565b7f000000000000000000000000000000000000000000000000000000000000000081565b5f808290505f8151036107a6575f9150506108ab565b5f805b82518110156108a457603060f81b8382815181106107ca576107c9611338565b5b602001015160f81c60f81b7effffffffffffffffffffffffffffffffffffffffffffffffffffffffffffff1916101580156108485750603960f81b83828151811061081857610817611338565b5b602001015160f81c60f81b7effffffffffffffffffffffffffffffffffffffffffffffffffffffffffffff191611155b1561089757603083828151811061086257610861611338565b5b602001015160f81c60f81b60f81c61087a919061139e565b60ff16600a8361088a91906113d2565b6108949190611413565b91505b80806001019150506107a9565b5080925050505b919050565b60605f82036108f6576040518060400160405280600181526020017f30000000000000000000000000000000000000000000000000000000000000008152509050610a04565b5f8290505f5b5f821461092557808061090e90611446565b915050600a8261091e91906114ba565b91506108fc565b5f8167ffffffffffffffff8111156109405761093f610e46565b5b6040519080825280601f01601f1916602001820160405280156109725781602001600182028036833780820191505090505b5090505b5f85146109fd5760018261098a91906114ea565b9150600a85610999919061151d565b60306109a59190611413565b60f81b8183815181106109bb576109ba611338565b5b60200101907effffffffffffffffffffffffffffffffffffffffffffffffffffffffffffff191690815f1a905350600a856109f691906114ba565b9450610976565b8093505050505b919050565b6040518060600160405280606081526020015f81526020015f151581525090565b5f604051905090565b5f80fd5b5f80fd5b5f819050919050565b610a4d81610a3b565b8114610a57575f80fd5b50565b5f81359050610a6881610a44565b92915050565b5f60208284031215610a8357610a82610a33565b5b5f610a9084828501610a5a565b91505092915050565b5f81519050919050565b5f82825260208201905092915050565b8281835e5f83830152505050565b5f601f19601f8301169050919050565b5f610adb82610a99565b610ae58185610aa3565b9350610af5818560208601610ab3565b610afe81610ac1565b840191505092915050565b5f819050919050565b610b1b81610b09565b82525050565b5f8115159050919050565b610b3581610b21565b82525050565b5f606083015f8301518482035f860152610b558282610ad1565b9150506020830151610b6a6020860182610b12565b506040830151610b7d6040860182610b2c565b508091505092915050565b5f6020820190508181035f830152610ba08184610b3b565b905092915050565b5f80fd5b5f80fd5b5f80fd5b5f8083601f840112610bc957610bc8610ba8565b5b8235905067ffffffffffffffff811115610be657610be5610bac565b5b602083019150836001820283011115610c0257610c01610bb0565b5b9250929050565b610c1281610b09565b8114610c1c575f80fd5b50565b5f81359050610c2d81610c09565b92915050565b610c3c81610b21565b8114610c46575f80fd5b50565b5f81359050610c5781610c33565b92915050565b5f805f805f60808688031215610c7657610c75610a33565b5b5f610c8388828901610a5a565b955050602086013567ffffffffffffffff811115610ca457610ca3610a37565b5b610cb088828901610bb4565b94509450506040610cc388828901610c1f565b9250506060610cd488828901610c49565b9150509295509295909350565b5f73ffffffffffffffffffffffffffffffffffffffff82169050919050565b5f819050919050565b5f610d23610d1e610d1984610ce1565b610d00565b610ce1565b9050919050565b5f610d3482610d09565b9050919050565b5f610d4582610d2a565b9050919050565b610d5581610d3b565b82525050565b5f602082019050610d6e5f830184610d4c565b92915050565b5f610d7e82610d2a565b9050919050565b610d8e81610d74565b82525050565b5f602082019050610da75f830184610d85565b92915050565b610db681610a3b565b82525050565b5f82825260208201905092915050565b7f636173686261636b2e6d6f6465000000000000000000000000000000000000005f82015250565b5f610e00600d83610dbc565b9150610e0b82610dcc565b602082019050919050565b5f604082019050610e295f830184610dad565b8181036020830152610e3a81610df4565b905092915050565b5f80fd5b7f4e487b71000000000000000000000000000000000000000000000000000000005f52604160045260245ffd5b610e7c82610ac1565b810181811067ffffffffffffffff82111715610e9b57610e9a610e46565b5b80604052505050565b5f610ead610a2a565b9050610eb98282610e73565b919050565b5f67ffffffffffffffff821115610ed857610ed7610e46565b5b610ee182610ac1565b9050602081019050919050565b5f610f00610efb84610ebe565b610ea4565b905082815260208101848484011115610f1c57610f1b610e42565b5b610f27848285610ab3565b509392505050565b5f82601f830112610f4357610f42610ba8565b5b8151610f53848260208601610eee565b91505092915050565b5f60208284031215610f7157610f70610a33565b5b5f82015167ffffffffffffffff811115610f8e57610f8d610a37565b5b610f9a84828501610f2f565b91505092915050565b7f636173686261636b2e70657263656e74000000000000000000000000000000005f82015250565b5f610fd7601083610dbc565b9150610fe282610fa3565b602082019050919050565b5f6040820190506110005f830184610dad565b818103602083015261101181610fcb565b905092915050565b7f636173686261636b2e6175746f636f6d706f756e6400000000000000000000005f82015250565b5f61104d601583610dbc565b915061105882611019565b602082019050919050565b5f6040820190506110765f830184610dad565b818103602083015261108781611041565b905092915050565b7f50657263656e74206d75737420626520312d31300000000000000000000000005f82015250565b5f6110c3601483610dbc565b91506110ce8261108f565b602082019050919050565b5f6020820190508181035f8301526110f0816110b7565b9050919050565b5f81905092915050565b828183375f83830152505050565b5f61111a83856110f7565b9350611127838584611101565b82840190509392505050565b5f61113f82848661110f565b91508190509392505050565b7f496e76616c6964206d6f646500000000000000000000000000000000000000005f82015250565b5f61117f600c83610dbc565b915061118a8261114b565b602082019050919050565b5f6020820190508181035f8301526111ac81611173565b9050919050565b5f6111be8385610dbc565b93506111cb838584611101565b6111d483610ac1565b840190509392505050565b5f6060820190506111f25f830186610dad565b818103602083015261120381610df4565b905081810360408301526112188184866111b3565b9050949350505050565b5f61122c82610a99565b6112368185610dbc565b9350611246818560208601610ab3565b61124f81610ac1565b840191505092915050565b5f60608201905061126d5f830185610dad565b818103602083015261127e81610fcb565b905081810360408301526112928184611222565b90509392505050565b5f6060820190506112ae5f830185610dad565b81810360208301526112bf81611041565b905081810360408301526112d38184611222565b90509392505050565b6112e581610b09565b82525050565b6112f481610b21565b82525050565b5f6060820190508181035f8301526113138186886111b3565b905061132260208301856112dc565b61132f60408301846112eb565b95945050505050565b7f4e487b71000000000000000000000000000000000000000000000000000000005f52603260045260245ffd5b5f60ff82169050919050565b7f4e487b71000000000000000000000000000000000000000000000000000000005f52601160045260245ffd5b5f6113a882611365565b91506113b383611365565b9250828203905060ff8111156113cc576113cb611371565b5b92915050565b5f6113dc82610b09565b91506113e783610b09565b92508282026113f581610b09565b9150828204841483151761140c5761140b611371565b5b5092915050565b5f61141d82610b09565b915061142883610b09565b92508282019050808211156114405761143f611371565b5b92915050565b5f61145082610b09565b91507fffffffffffffffffffffffffffffffffffffffffffffffffffffffffffffffff820361148257611481611371565b5b600182019050919050565b7f4e487b71000000000000000000000000000000000000000000000000000000005f52601260045260245ffd5b5f6114c482610b09565b91506114cf83610b09565b9250826114df576114de61148d565b5b828204905092915050565b5f6114f482610b09565b91506114ff83610b09565b925082820390508181111561151757611516611371565b5b92915050565b5f61152782610b09565b915061153283610b09565b9250826115425761154161148d565b5b82820690509291505056fea264697066735822122071539eddfad11330f93bf29f606d53116cde62dafc75c1fea56146a12db65e0e64736f6c634300081a0033","linkReferences":{}},"methodIdentifiers":{"ENS_RESOLVER()":"93ed4464","REVERSE_REGISTRAR()":"952899fc","getPreferences(bytes32)":"04025c4f","setPreferences(bytes32,string,uint256,bool)":"6a7c6563"},"id":37}